:020000040800F2
:10000000D0EE0020DD030008DD8900085F760008DF
:10001000D98900082D240008F1E60008000000003E
:100020000000000000000000000000001D030008A8
:100030009B2F0008000000007903000885C000081D
:10004000F7030008F7030008F7030008F7030008A8
:10005000F7030008F70300089D2F0008F7030008C6
:10006000F7030008A72F0008B12F0008F7030008C6
:10007000F7030008F7030008F7030008F703000878
:10008000F7030008F7030008F7030008F703000868
:1000900031240008F7030008F7030008BB2F00080D
:1000A000F7030008F7030008F7030008F703000848
:1000B000F7030008F7030008F7030008F703000838
:1000C000F7030008F7030008F7030008F703000828
:1000D000F70300086DC90008F70300087DC9000890
:1000E000F7030008F7030008F7030008F703000808
:1000F000F7030008F7030008F7030008A525000828
:10010000F7030008F7030008F7030008F7030008E7
:10011000F7030008F7030008F7030008F7030008D7
:10012000F70300082126000831260008F70300081D
:10013000F7030008F7030008F7030008F7030008B7
:1001400041240008F7030008F7030008F58D0008B4
:10015000F7030008C92E0008D92E0008ADCA000810
:10016000F7030008F7030008F7030008F703000887
:10017000F7030008F7030008F70300080000000079
:10018000F7030008F703000800F002F800F0B6F8E3
:100190000AA090E8000C82448344AAF10107DA45E2
:1001A00001D100F0ABF8AFF2090EBAE80F0013F07E
:1001B000010F18BFFB1A43F00103184750940100C8
:1001C000709401000A444FF0000C10F8013B13F04A
:1001D000070408BF10F8014B1D1108BF10F8015BA0
:1001E000641E05D010F8016B641E01F8016BF9D193
:1001F00013F0080F1EBF10F8014BAD1C0C1B09D1EA
:100200006D1E58BF01F801CBFAD505E014F8016B5B
:1002100001F8016B6D1EF9D59142D6D370470000ED
:100220000023002400250026103A28BF78C1FBD8FF
:10023000520728BF30C148BF0B6070476E2900F0DD
:10024000FF83702900F04185662916F09D8165299C
:1002500016F09A81672916F09781612916F0968128
:1002600003681B0A28BF41F08001692900F0AC83B4
:10027000642900F0A983752900F0A6836F2900F096
:10028000CE84782900F00D85E92900F06984E429FD
:1002900000F06684F52900F06384EF2900F0CB8438
:1002A000F82900F00C850368DB0928BF41F08001C4
:1002B000632901F04382732901F04882E32901F0A8
:1002C0005382F32901F05882002070471FB516F0C1
:1002D000A3F89DE8030000F0DFFA01F0A7FA04009C
:1002E0000020002114F048FE401C60600020002126
:1002F00014F02CFEE0601FBD10B510BD01F068FACF
:100300001146FFF7E3FF11F0A5FF01F041FB03B435
:10031000FFF7F2FF03BC01F079FB00002C4B1968DA
:100320000868B0E8F04F80F30988BFF36F8F4FF093
:10033000000080F311887047000000000848006842
:10034000006880F308884FF0000080F3148862B6DC
:1003500061B6BFF34F8FBFF36F8F00DF00BF00BFE9
:1003600008ED00E0DFF80C00016841F47001016065
:10037000704700BF88ED00E0EFF30980BFF36F8F97
:10038000134B1A681EF0100F08BF20ED108A20E9E9
:10039000F04F106009B44FF0500080F31188BFF3A4
:1003A0004F8FBFF36F8F13F025FB4FF0000080F3EA
:1003B000118809BC19680868B0E8F04F1EF0100FEA
:1003C00008BFB0EC108A80F30988BFF36F8F7047C5
:1003D00088040020EFF3058070470000094880473B
:1003E00009480047FEE7FEE7FEE7FEE7FEE7FEE717
:1003F000FEE7FEE7FEE7FEE704480549054A064B2F
:10040000704700006DC1000889010008D0AE0020CF
:10041000D0EE0020D0CE0020D0CE00209FED1A1AC2
:10042000F5EE000A40EE010ABDEEE00AF5EEC00A64
:1004300010EE100AF1EE10FA38BF401E00EE100A5E
:100440001349F7EE001AB8EEC00A30EEC00ADFED2D
:100450000F0A20EE200AFCEEC00A10EE900AC0F34C
:10046000080000EE900A01EB8000F8EE600A90EDC3
:10047000011A70EE600A90ED000A71EEE01A21EEAA
:10048000800A00EE810A704783F9223E0000004492
:100490008C8B0108DFED190AB5EEC00A60EE200A68
:1004A000BDEEE01A11EE100AF1EE10FA38BF401E50
:1004B00000EE100A1349F7EE001AB8EEC00A30EE4B
:1004C000C00ADFED0F0A60EE200ABCEEE00A10EE73
:1004D000100AC0F3080000EE100A01EB8000B8EE2D
:1004E000400A90ED011A70EEC00A90ED000A71EE1C
:1004F000E01A21EE800A00EE810A704783F9223E5D
:10050000000000448C8B010870B5064600F0A8F985
:10051000056806F10B0020F00704B4429CBF0020E0
:1005200070BD2B466A68BAB11068A04210D304F1BE
:10053000080188423CBF5068586007D351681019C1
:1005400041601168091B016058601460101D70BD86
:1005500013465268002AE7D12146284600F088F960
:100560000028DED170BD70B50446051F00F078F993
:100570000068002C14BF446870BD002C18BFAC424A
:100580003CBF20466468F8D301680A18AA4218BF25
:10059000456003D12A680546114401602868411965
:1005A000A1421CBF6C6070BD61686960216808442D
:1005B000286070BD53EA020C00F069802DE9F04B11
:1005C0004FF00006002B1FBFB3FA83F503FA05F4C2
:1005D00024FA05F65E4012BF1643B2FA82F502FA1B
:1005E00005F4C5F120051EBF22FA05FC44EA0C04FF
:1005F000203556EA044C4FEA144418BF641C4FF0EF
:1006000000084FF00009904271EB030C39D3002928
:1006100019BFB1FA81F701FA07F6B0FA80F700FACC
:1006200007F6C7F120071EBF20FA07FC46EA0C06B2
:100630002037B6FBF4FCA7EB0507103F07F01F0BB4
:10064000CBF120060CFA0BFB2CFA06F644BFB3469E
:100650000026202FA4BF5E464FF0000B5BEA060C7D
:1006600008BF4FF0010B19EB0B09ABFB027C48EB09
:100670000608C01B06FB02CC0BFB03CC71EB0C0184
:10068000C1E70B46024641464846BDE8F08B13B52C
:100690004FF000004FF00001AFF30080BDE81C40B8
:1006A000704700001CB50C46064B7B446946009021
:1006B000204600F0DEF904460020694600F0ECF91F
:1006C00020461CBDEB030000032A40F2308010F0EE
:1006D000030C00F0158011F8013BBCF1020F6244DD
:1006E00098BF11F801CB00F8013B38BF11F8013B6E
:1006F000A2F1040298BF00F801CB38BF00F8013B1B
:1007000011F0030300F02580083AC0F0088051F88A
:10071000043B083A51F804CBA0E80810F5E7121D95
:100720005CBF51F8043B40F8043BAFF30080D207B4
:1007300024BF11F8013B11F801CB48BF11F8012B80
:1007400024BF00F8013B00F801CB48BF00F8012BA3
:10075000704710B5203AC0F00B80B1E81850203A2D
:10076000A0E81850B1E81850A0E81850BFF4F5AF51
:100770005FEA027C24BFB1E81850A0E8185044BFDB
:1007800018C918C0BDE810405FEA827C24BF51F848
:10079000043B40F8043B08BF7047D20728BF31F83C
:1007A000023B48BF11F8012B28BF20F8023B48BF8D
:1007B00000F8012B704702F0FF0343EA032242EAEC
:1007C000024200F002B84FF000020429C0F012808B
:1007D00010F0030C00F01B80CCF1040CBCF1020FF4
:1007E00018BF00F8012BA8BF20F8022BA1EB0C01C9
:1007F00000F00DB85FEAC17C24BF00F8012B00F8BF
:10080000012B48BF00F8012B70474FF0000200B5E4
:10081000134694469646203922BFA0E80C50A0E823
:100820000C50B1F12001BFF4F7AF090728BFA0E8D1
:100830000C5048BF0CC05DF804EB890028BF40F89D
:10084000042B08BF704748BF20F8022B11F0804FDF
:1008500018BF00F8012B70477047704770470000C1
:100860000048704778AE0020704770477047704767
:1008700038B504460A4600206946AFF300800028D8
:1008800008BF38BD02460099204600F0F1FA012069
:1008900038BD012000F094BFF8B5AFF300800546E5
:1008A00000200C46102000BF0646A819A0420DD912
:1008B000324669460020AFF30080070008BF00F011
:1008C0007FFF0098A04218BF0546C419FFF7C8FF74
:1008D00005600746F01D20F007004619284600F085
:1008E0000AF8B44208BFF8BDA21B31463868BDE81B
:1008F000F84000F0BDBA00210160C0E90110704766
:100900001020704770B5044685690068C10601D59E
:10091000302600E02026C00707D070BDD4E90121B1
:1009200030469047206A401C20626D1EF6D570BD8F
:1009300070B5044685690078C00707D170BDD4E959
:10094000012120209047206A401C20626D1EF6D5B0
:1009500070BD09684A0501D540B27047C905FCD58C
:1009600000B2704709684A0501D5C0B27047C90591
:10097000FCD580B2704770B50C460546012A05D0FB
:100980002878800600D5EA69002302E0012305E00B
:100990005B1C934202D2E05C0028F9D1A869E618FA
:1009A000C01AA861286A184428622846FFF7AAFFDF
:1009B00004E0D5E9012114F8010B9047B442F8D3C3
:1009C0002846FFF7B5FF70BD2DE9F041064600242B
:1009D00010687529314616A510D0FFF7BAFF002818
:1009E00002DA404213A507E031688A0701D512A553
:1009F00002E0490704D511A5012401E0FFF7B2FF89
:100A000000210A2206F1240709E0B0FBF2FCB0FB4A
:100A1000F2F302FB1C00303078541846491C0028C1
:100A2000F3D123462A463046BDE8F04100F098BA9B
:100A3000000000002D0000002B000000200000003E
:100A400011680268006A530501D508700AE0D305F1
:100A500001D5088006E0130603D5C217C1E90002DC
:100A600000E008600120704701694A1C02610878B3
:100A7000704700B58FB0CDE90131002105910549DE
:100A80007944CDE903101146684600F029F90FB00A
:100A900000BD0000E5FFFFFF0A6802F8010B0A60D5
:100AA000704700002DE9FF5F15468A460446DFF8CF
:100AB000AC80F8440027D8E900103E46CDE900108C
:100AC00010E03AF816106A4602A800F059FE411CE0
:100AD00007D02178890603D5E269391891420DD8EB
:100AE0000744761C2078800602D5E069B84205DD0F
:100AF000AE42E6DB3AF816000028E2D1A069C01B3E
:100B0000A0612046FFF7FEFED8E90010CDE90010F5
:100B1000002017E03AF818106A4602A800F030FEEC
:100B2000B0F1FF3F81460BD000250DF1080B05E029
:100B3000D4E901211BF8050090476D1C4D45F7D302
:100B400008F10100B0428046E4DB206A38442062AC
:100B50002046FFF7EDFEBDE8FF9F0000DA880100A8
:100B60002DE9F0418046D21D22F007020025D2E98E
:100B70000002F52915A614D0011E72F1000106DA53
:100B80000023D0EB030063EB020211A608E0D8F8C3
:100B900000108B0701D50FA602E0490701D50EA66C
:100BA00001251146002408F1240704E000F07AF939
:100BB00030323A55641C50EA0102F7D12B463246D6
:100BC00021464046BDE8F04100F0CAB900000000EF
:100BD0002D0000002B0000002000000030B4002198
:100BE00000F1240408E002F00705D208303542EA9B
:100BF0004372DB086554491C52EA0305F3D10468CB
:100C0000002310A2250707D5A40600D421B1C4698A
:100C100001230DA2641EC46130BC00F0A1B910B55F
:100C2000044621461068FFF79DFE02462046BDE8B7
:100C300010400023D2E7D21D22F00701D1E90023A2
:100C4000CCE700000000000030000000F0B40D46CA
:100C50000188090502D5214C7C4402E01F4C7C44EC
:100C60000E34002100F1240608E002F00F071209FB
:100C7000E75D42EA03721B097754491C52EA0307F5
:100C8000F3D102780023120704D5702D06D009B1E4
:100C9000022311342246F0BC00F062B90123103463
:100CA000F8E770B504460D4621461068FFF75AFE76
:100CB000024629462046BDE870400023C6E7D21D03
:100CC00022F00703D3E90023C0E70368126843F06A
:100CD000200303600823C3610023B7E73C870100BA
:100CE0002DE9F05F894604464FF0000ADFF874B141
:100CF000FB44C0F820A02046E1688847002874D053
:100D0000252806D0D4E901219047206A401C2062A2
:100D1000F1E700265F462046E1688847202805461F
:100D200007DB312D05D2781910F8200C08B10643E5
:100D3000F1E7B00701D526F00406C4F81CA000278F
:100D4000C4F818A02A2D09D028460DF0FBFC38B3B2
:100D500004EB8708303DC8F8185019E059F8041B17
:100D6000204604EB87029161E1688847012F054620
:100D700018D1E069002820DA26F020061DE0D8F816
:100D8000180000EB800005EB40003038C8F8180070
:100D90002046E168884705460DF0D4FC0028EED1D6
:100DA000012F0AD02E2D08D12046E16888477F1CEC
:100DB0000546022F46F02006C4DBA069002803DAAE
:100DC000404246F00106A061F00701D026F010066F
:100DD0006C2D0BD0682D09D04C2D39D06A2D35D013
:100DE000742D35D07A2D33D016E038E0E1682F46E7
:100DF00020468847B842054609D16C2F26D04FF4CB
:100E00008060E168064320468847054604E06C2F71
:100E10001AD04FF4807006430DB3A5F14100192894
:100E200002D8203546F400664A4629462046266008
:100E30004E46FFF703FA80B101280BD0F61D26F0CD
:100E4000070000F1080956E74020E4E78020D8E7D2
:100E50000020D6E706F104094DE7284652E7206A4C
:100E6000BDE8F09FCC8601000048704770AE0020BE
:100E7000034640688C46002818BF88423CBF0346A2
:100E80004068F8D318681844884207D00CF1030072
:100E900020F00700001D411A521A0146081D0A6081
:100EA000FFF761BB30B5B0F10A024FEA900E71F165
:100EB00000034EEA817EB0EB0E0061EB91014FEA38
:100EC000101E4EEA017E10EB0E0041EB11114FEAAD
:100ED000102E4EEA016E10EB0E0041EB11214FEA8D
:100EE000104E4EEA014E10EB0E0041EB114140183E
:100EF00041F100014FEAD00040EA41704FEAD101D0
:100F000010EB80054FEA810444EA907444EB01043D
:100F10006D1944EB0404521BA3414FF0000348BF7A
:100F20000A3200D530BD401C41F1000130BD000047
:100F30001FB584B000200A9C06AB04AA02A9009445
:100F4000AFF3008018B1DDE9020108B010BD03481D
:100F5000204000F02BFD00200146F6E70000207C39
:100F60002DE9F0470D4699469246044600F12408C3
:100F70000168880604D5E06921F01001216000E0D5
:100F80000120A84201DD471B00E00027A1697A1972
:100F900002EB0900081AA0612078C00602D420469E
:100FA000FFF7B0FC002608E0D4E901211AF806009A
:100FB0009047206A401C761C20624E45F4DB207866
:100FC000C0060AD52046FFF79DFC06E0D4E90121C2
:100FD00030209047206A401C2062381EA7F101078C
:100FE000F4DC07E0D4E9012118F805009047206AF5
:100FF000401C2062281EA5F10105F3DC2046FFF706
:1010000097FC2078000602D50220BDE8F087012079
:10101000FBE770472DE9FF4F0C461E464FF0FF37A8
:101020008BB0D2E90001DDF860800A908A46C1F3F6
:101030000A5505B93D460021084615F095FABAF162
:10104000000F00F4400005DA00EB80004FF440018F
:1010500001EA50004FEA9059B9F1010F00DDB9469D
:101060000A9850EA4A000ED044F61050A5F2FF3517
:1010700045432F14B8F1000F1ED07542291E1EDD06
:10108000C9F100021CE0B8F1010F4FF0000001D0DF
:10109000302103E0F24305E02154401CB042FBDB69
:1010A00030460022002121540B99C1F80880C1E983
:1010B00000200FB0BDE8F08FBD1B6D1CDEE74A4677
:1010C00000DA694206A800F0F5FB06AB93E80700DA
:1010D00003AB83E8070050460A9900F054FD8DE801
:1010E0000700A0F500501F3800900398002D09DD7F
:1010F00042F21F014A46084403A90390684600F0E3
:10110000B3FF08E0A0F500504A461F3803A903903A
:10111000684600F0BDFF8DE807000004000C03D016
:101120004FF0FF30410800E01046B8F1000F03D047
:101130000022009215461EE0751E05D4FFF7B2FE90
:10114000303262556D1EF9D5B3460122084302D0F4
:1011500000227F1C04E02078302801D100227F1E6D
:10116000002A099786D01DE0112D07DAFFF79AFEB5
:10117000303262556D1C50EA0102F5D1084302D0AD
:101180000098C8B10EE00021681E05E0235C625C97
:1011900063542254401E491C8142F7DBAB46A81B16
:1011A000401E0990002004F80B000B98099AC0F823
:1011B0000880C0E9002B7CE711264FF0000859E7B2
:1011C0002DE9F04F88460446D21D22F0070191B068
:1011D000D1E90001CDE90A010DF08CFA02460B9825
:1011E000C00F01D02D2007E02068810701D52B20FA
:1011F00002E0202101EAC000032A099001D0072A59
:1012000005DB03464146204600F014FB0BE1207845
:10121000800601D5E06900E00620B8F1650F81463F
:1012200006D0B8F1660F18D0B8F1670F70D131E071
:101230000020B9F1110F009001DB112301E009F149
:1012400001030AAA01A90CA8FFF7E4FEDDE90C706E
:10125000002609F10105834647E001204B46009036
:101260004FF000470AAA01A90CA8FFF7D3FEDDE959
:101270000DB00C995D46002610B909F101000D185A
:10128000B9EB050003D4C0F1FF3609F10105A5EB68
:1012900009002BE0B9F1010F01DA4FF0010900203C
:1012A000B9F1110F0090484601DD112300E003461B
:1012B0000AAA01A90CA8FFF7ADFEDDE90C704D46A6
:1012C00000268346207800070AD4AB4500DA5D4645
:1012D00001A8012D04DD411911F8011C302907D0A6
:1012E0004F4502DA17F1040F04DA012082460FE0BD
:1012F0006D1EEEE7002F02DCED1B3E4403E0781C80
:10130000A84200DD7D1CB81B00F1010A4FF0004728
:101310002078000703D4AA4501DB4FF0FF3A0021F3
:10132000B7F1004F0DF143088DF8431024D002208F
:101330002B23002F01DA7F422D230A21021EA0F168
:10134000010000DC5FB197FBF1FC97FBF1F201FBC0
:101350001C7C17460CF1300C08F801CDEEE7A8F123
:10136000010003702188090501D5452100E06521B0
:10137000A0F1010800F8011C09980FA9A1EB0807CA
:10138000FF1D00B10120411901EBEA70A169384449
:10139000081A401EA0612078C00602D42046FFF73C
:1013A000B1FA099828B1D4E901219047206A401C7C
:1013B00020622078C00622D52046FFF7A3FA1EE05F
:1013C000002E04DBB34502DD01A8805D00E0302083
:1013D000D4E901219047206A401C2062761CAAF1C2
:1013E00001005FEA000A0AD100F020FAC068016833
:1013F000405CD4E901219047206A401C2062281EED
:10140000A5F10105DCDC07E0D4E9012118F8010BA6
:101410009047206A401C2062381EA7F10107F3DCC8
:101420002046FFF785FA032011B043E62DE9F04F7F
:1014300004460D46D21D22F0070089B0D0E900977E
:10144000484639460DF056F90246F80F01D02D23D3
:1014500007E02068810701D52B2302E0202101EA63
:10146000C0038DF820300BB1012000E00020032ADA
:10147000824601D0072A04DB2946204600F0DAF92B
:101480003FE12078800601D40D2500E0E569C7F32F
:101490000A560D2D49DA00214FEA175B084615F070
:1014A00063F8002F00F4400007DA00EB80004FF4EF
:1014B000400100EBD07001EA60008115012901DDD7
:1014C0004FF0FF3100224FEA850CBCF1180F06D314
:1014D0001346ACF118004FF08052C24003E04FF4C5
:1014E000801323FA0CF30CF10C0CBCF1200F04D385
:1014F000ACF1200C09FA0CF001E007FA0CF000291D
:101500004FF0004801DD18B90FE00ED140450CD373
:1015100019EB02095F4121B9404502D19F4329EAF5
:101520000209BBEB175F00D0761C2088000502D5AE
:101530007B48784402E07A487844193808AA302376
:1015400002F80A30037C0AF10101002E0AF1020AB6
:1015500053546A4602DC4FF0300101E04FF0310194
:101560004FF001088DF8001002D0A6F2FF3603E01C
:1015700059EA470100D06B4E002D02DC21780907A3
:1015800004D54FF002082E218DF80110C446002129
:101590000BE0C7F303433F01C35C491C6D1E02F817
:1015A0000830052908F1010801DA002DF1DC0021DD
:1015B0000CE000EB1973491C1B786D1E082902F81A
:1015C00008304FEA091908F1010801DA002DF0DCB2
:1015D00021688B0602D516E0A8F10108E04505DD7B
:1015E00002EB080313F8013C302BF5D0B8F1000FE3
:1015F00009DD02EB080313F8013C2E2B03D1090788
:1016000001D4A8F10108002D05DD3E2102F80810E3
:101610006D1E08F10108407C002E02F8080008F158
:10162000010804DA2D20764202F8080002E02B209F
:1016300002F808000A214FF47A70864208F1010886
:101640000BDB96FBF0F3303302F8083096FBF0F337
:1016500008F1010800FB136601E0642E0CDB642036
:1016600096FBF0F3303302F8083096FBF0F308F104
:10167000010800FB136601E00A2E06DB96FBF1F081
:10168000303002F8080008F1010896FBF1F001FB88
:101690001060303002F80800A16908F1010808EB79
:1016A000050202EB0A00081AA0612078C00602D4E5
:1016B0002046FFF727F9216A08AE01EB0A002062F5
:1016C00004E0D4E9012116F8010B9047BAF1010AB0
:1016D000F7D22078C00602D52046FFF713F96E46F0
:1016E00009E016F8010B3E280FD0D4E901219047FC
:1016F000206A401C2062B8F10108F2D22046FFF7B0
:1017000017F909B00320BDE8F08F206A2844206251
:1017100003E0D4E90121302090476D1EEBD3F8E7B8
:10172000AE7E010002FCFFFF10B5436913B1AFF3B9
:10173000008001E0FFF71FF9012010BD127800F1D1
:1017400024010A7000224A700122EDE711684FF06F
:10175000FF32E9E710B5436913B1AFF3008001E050
:10176000FFF7A0F9012010BD128800F12401828446
:101770000022C2840122EDE711684FF0FF32E9E751
:1017800070B516460C46054600F048F8036893F815
:101790000101012806D0FF2C0FD8185D68B1012087
:1017A0002C7070BDD3F807013246214603F20713AF
:1017B00003442846BDE8704018474FF0FF3070BD25
:1017C00010B500F0FBF8BDE8104000F0EAB8704733
:1017D0007546FFF749FBAE4605006946534620F0C3
:1017E0000700854618B020B5FEF706FEBDE820408C
:1017F0004FF000064FF000074FF000084FF0000BCD
:1018000021F00701AC46ACE8C009ACE8C009ACE87F
:10181000C009ACE8C0098D467047000010B500F063
:1018200005F8001D10BD00BF51370100004870478A
:1018300090AE00202DE9F0411F46044603260168C2
:10184000072A01F4006004DB08B116A505E016A51F
:1018500003E008B115A500E015A521F010002060F7
:10186000A069C01EA0610FB1401EA0612046FFF715
:1018700049F84FB1D4E9012138469047206A401C0D
:101880002062C01C206206E0206AFAE7D4E9012148
:1018900015F8010B9047761EF8D22046FFF748F85E
:1018A000BDE8F0814E414E006E616E00494E46002B
:1018B000696E66002DE9F047814616468AB03348C6
:1018C00078440DC88DE80D0030487844801C03AC86
:1018D0000DC884E80D0041F69B300844372190FB89
:1018E000F1F290FBF1F5A5F1800501FB12041B3C20
:1018F00002D56442012000E00020DFF890A080467D
:101900000027FA44AAF1BE0A0DE0E00709D03246EA
:10191000684607EB47010AEB810100F0B9FB8DE84F
:10192000070064107F1C002CEFD1184F7F44AC3FA0
:1019300018E0E80714D007EB04100DF1180A90E83E
:101940000E008AE80E00C068F04201D19819089094
:10195000324606A903A800F09BFB03AB83E807000F
:101960006D10641C002DE4D132466946B8F1000FB9
:1019700003A802D000F078FB01E000F089FBC9E980
:101980000001C9F808200AB0BDE8F087B07B01006B
:1019900010B50446AFF300802046BDE81040FEF7C6
:1019A000B6BC002801D000F031B8704710B500F087
:1019B0004DF8BDE81040FFF7F4BF000010B5012856
:1019C00005D0002103A000F027F8012010BD09A1D7
:1019D000F8E7000053494752544D454D3A204F75A2
:1019E00074206F662068656170206D656D6F727917
:1019F000000000003A2048656170206D656D6F72CF
:101A00007920636F727275707465640001491820E3
:101A1000ABBEFEE72600020070B505460C460A2064
:101A200000E06D1C00F0A8F835B128780028F8D146
:101A300002E0641C00F0A0F814B120780028F8D16E
:101A4000BDE870400A2000F097B8000010B50228E9
:101A500003D0410103D50DA112E0002010BD01010A
:101A600001D50FA10CE0C10001D511A108E0810052
:101A700001D512A104E0400001D513A100E000212E
:101A800015A0FFF7C9FF012010BD0000496E766167
:101A90006C6964204F7065726174696F6E0000003C
:101AA000446976696465204279205A65726F000046
:101AB0004F766572666C6F7700000000556E646546
:101AC00072666C6F77000000496E65786163742000
:101AD000526573756C7400005349474650453A206F
:101AE00041726974686D65746963206578636570B7
:101AF00074696F6E3A2000004FF0013C50F8042BDF
:101B000051F8043B9A4221D1A2EB0C03934313EA10
:101B1000CC1317D150F8042B51F8043B9A4215D13D
:101B2000A2EB0C03934313EACC130BD150F8042B14
:101B300051F8043B9A4209D1A2EB0C03934313EAF8
:101B4000CC13DBD04FF00000704700BFD01A01BAB1
:101B5000B1FA81F101F0180122FA01F0CB40C1F194
:101B60002001DBB2C0B2C01A2CFA01F3D11A9143A2
:101B700011EAC311E6D1704708B569468DF8000037
:101B80000320ABBE08BD5FEA400C08BF91F0000F18
:101B90004FEA8C234FEAC12243EA51514FEA1C50CD
:101BA00018BF00F5F0404FEA300018BF41F0004187
:101BB0005FEA6C5C00F02980BCF1FF3F08BF40F099
:101BC00080407047130C06BF12044FF0100C4FF00A
:101BD000000C130E04BF12020CF1080C130F04BF0B
:101BE00012010CF1040C930F04BF92000CF1020CD3
:101BF000D30F04BF52000CF1010C11464FF000024C
:101C0000A0F11F00A0EB0C00704711F0004F08BFBF
:101C1000704731F000413FF4D5AF0B0C06BF09040B
:101C20004FF0100C4FF0000C0B0E04BF09020CF12A
:101C3000080C0B0F04BF09010CF1040C8B0F04BF3F
:101C400089000CF1020CCB0F04BF49000CF1010C10
:101C5000CCF12003A0EB0C0022FA03F302FA0CF201
:101C600041EA030100F10100704720F07F4C80EA57
:101C7000030023F07F47ACEB070303F57C5300F030
:101C8000004003F1FF032DE980494FEA154B09B4E9
:101C90004FEA144325EA0B4E24EA03480FF20426C8
:101CA00006EB132749083E785FEA320203FB06671A
:101CB000C7F5000707FB06F64FEA54374FEAD6464A
:101CC00006F1020607FB066CCCF1005C4FEA1C47EC
:101CD0002CEA074C07FB06F40CFB06F504EB154653
:101CE0004FEA961634BF00204FF000404FEAD1373C
:101CF00006FB07FC4FEA1C4C0CFB0BF7D21B03FB4B
:101D00000CF761EB07010CFB0EF7B0EB074072EB31
:101D100017420CFB08F734BFA2EB0742B2EB0742B5
:101D200061EB17414FEA0C444FEA910706FB07FCB1
:101D30004FEA1C4C0CFB0BF7B0EBC74072EB573271
:101D400003FB0CF734BFA2EBC742B2EBC74261EB17
:101D500057310CFB0EF7B0EBC70072EB57720CFB60
:101D600008F734BFA2EBC702B2EBC70261EB5771B1
:101D7000039F4FEA816141EA921104EBCC044FEAE0
:101D8000D1374FEA826206FB07FC42EA90124FEA23
:101D900080604FEA1C4C0CFB0BF7D21B03FB0CF7CB
:101DA00061EB07010CFB0EF7B0EB074072EB17423B
:101DB0000CFB08F734BFA2EB0742B2EB074261EB22
:101DC00017414FEA8C554FEA910704EB9C2406FB20
:101DD00007FC4FEA1C4C0CFB0BF7B0EBC74072EB57
:101DE000573203FB0CF734BFA2EBC742B2EBC7423A
:101DF00061EB57310CFB0EF7B0EBC70072EB57727B
:101E00000CFB08F734BFA2EBC702B2EBC70261EBD1
:101E1000577115EB4C254FEA816141EA92114FEA67
:101E200082624FEAD13742EA901206FB07FC44F186
:101E300000044FEA80604FEA1C4C0CFB0BF7D21BEE
:101E400003FB0CF761EB07010CFB0EF7B0EB07404F
:101E500072EB17420CFB08F734BFA2EB0742B2EB60
:101E6000074261EB174115EB1C154FEA813141EA3E
:101E700092414FEA823242EA90424FEA80304FEA82
:101E80000C7644F1000448EA03434EEA0B484FF055
:101E9000000EB2EB080C71EB030724BF6246394613
:101EA0004EEB0E0E4FF0000B0018524149414BEB28
:101EB0000B0BB2EB080C71EB03077BF1000B24BF9B
:101EC000624639464EEB0E0E4FF0000B00185241A1
:101ED00049414BEB0B0BB2EB080C71EB03077BF1A9
:101EE000000B24BF624639464EEB0E0E51EA020744
:101EF00018BF46F0010616EB0E7655F1000254F1BC
:101F0000000103D5BDE88901BDE80088BDE889016D
:101F1000BDE80048B619524141EB0101A3F10103AC
:101F2000704780807F7E7D7C7B7A79787776767546
:101F30007473727171706F6E6E6D6C6C6B6A6A69BE
:101F40006868676666656464636362616160605F58
:101F50005F5E5E5D5D5C5C5B5B5A5A5959585857D1
:101F60005756565555555454535352525251515039
:101F700050504F4F4F4E4E4D4D4D4C4C4C4B4B4B8C
:101F80004A4A4A49494948484847474747464646D2
:101F9000454545444444444343434342424242410D
:101FA0004141002B26D4770021D01CB54FEA3707DA
:101FB00003B44FF010004FF0100114F0D5FA0FBC2D
:101FC000BDE810400BF1010BBBF1010F08BF5FEA48
:101FD000170722BF12F1010211F101014FF0004178
:101FE00043F1000300F0004043EA00007047F9D3DA
:101FF0005708DAE746EA064613F1400F4FEA16465D
:102000001FDD13F1200FDFBF16430A4600212033E6
:102010005B42C8D0C3F1200746EA064602FA07F73A
:102020004FEA164646EA0706C3F1200722FA03F2F2
:1020300001FA07F721FA03F14FF0000342EA070221
:10204000B1E746EA020646EA06464FEA164646EA7F
:102050000106BCBF46EA0646360C4FF000034FF0BF
:1020600000024FF000019EE72DE9C048934630B4CE
:1020700091E8380007C831EA400C48BF34EA430C05
:1020800003D5FFF7F2FDFFF78CFFF0BCBDE8008839
:102090002DE9C048934630B491E8380007C810F0E5
:1020A000804F08BF13F0804F03D100F005F8FFF711
:1020B00078FFF0BCBDE8008820F07F4780EA03008D
:1020C00023F07F4C07EB0C03A3F57C5300F000409A
:1020D000A3F1FE0392F0000F00F0B38095F0000F23
:1020E00000F077802DE901494FEA11404FEA14468C
:1020F00021EA004800FB06FC24EA064708FB06F636
:1021000007FB08F800FB07F718EB06484CEB164CEA
:102110004FEA124B18EB07484FEA15464CEB1740B5
:1021200022EA0B4E0BFB06FC25EA06470EFB06F6E1
:1021300007FB0EFE0BFB07F71EEB064E4CEB164C97
:102140004FF000061EEB074E4CEB174B18EB0B083D
:1021500040F1000018EB0E0B58EB000840F10000B6
:102160008F1A4FF000013CBFC943661B14BFB5EB8B
:10217000040C00213CBFC943F61B4FEA17444EEA4A
:102180008E0E27EA04454FEA1C4704FB07622CEA3F
:10219000074C05FB07F70CFB05F604FB0CFC16EBE4
:1021A000074642EB174216EB0C4642EB1C421BEB78
:1021B000060658EB0202414146EA9E0601D5BDE8FB
:1021C0000189B619524141EB0101A3F10103BDE8B8
:1021D00001894FEA14454FEA114724EA054621EAEE
:1021E000074C05FB07F406FB07F70CFB06F105FBA4
:1021F0000CFC11EB074144EB17444FEA124711EB7B
:102200000C4144EB1C4422EA074C05FB07F206FB99
:1022100007F70CFB06F605FB0CFC16EB074642EB3A
:10222000174216EB0C4642EB1C456A1854F10001AC
:1022300048BF7047B619524141EB0101A3F10103B8
:10224000704795F0000F37D04FEA11424FEA14471C
:1022500021EA024624EA074C02FB07F106FB07F7D6
:102260000CFB06F402FB0CFC14EB074441EB17419A
:102270004FEA154714EB0C4441EB1C4125EA074C8F
:1022800002FB07F506FB07F70CFB06F602FB0CFC4E
:1022900016EB074645EB174516EB0C4645EB1C4283
:1022A000121951F1000148BF7047B619524141EB74
:1022B0000101A3F1010370474FEA14454FEA1147AA
:1022C00024EA054621EA074C05FB07F106FB07F760
:1022D0000CFB06F24FF0000605FB0CFC12EB07426C
:1022E00041EB174112EB0C4251EB1C4148BF7047C8
:1022F000921841EB0101A3F1010370474A494A6872
:1023000022F440324A604A6843681A434A600168CE
:102310004A6822F480724A6001684A68036942EAA6
:1023200003224A6001684A6822F040724A600168EC
:102330004A6883681A434A6001688A6822F4006226
:102340008A6001688A68C3681A438A60816A6FF08C
:102350007062D14214D001688A6822F070628A608B
:1023600001688A68836A1A438A6001688A6822F071
:1023700040528A6001688A68C36A1A438A6009E029
:1023800001688A6822F070628A6001688A6822F0B7
:1023900040528A6001688A6822F002028A600168FD
:1023A0008A68037E42EA43028A6090F8201089B16D
:1023B00001684A6842F400624A6001684A6822F48F
:1023C00060424A6001684A68436A5B1E42EA4332DF
:1023D0004A6004E001684A6822F400624A600168C9
:1023E000CA6A22F47002CA620168CA6A838B5B1EE1
:1023F00042EA0352CA6201688A6822F400728A6063
:1024000001688A6890F8303042EA43228A600168A5
:102410008A6822F480628A6001688A68406942EAB8
:1024200080208860704700000023014000BFFEE765
:1024300010B5024801F007FB10BD0000880D002018
:1024400010B5024801F0FFFA10BD0000B00D0020E9
:1024500008B54FF4E0600C49086000208860C8604F
:102460000820086100200949087048708870C87009
:10247000087148718871C8716B460A460249044860
:1024800001F014F908BD0000703000202401002084
:10249000880D0020F8B507460C4615461E4640F24A
:1024A000FF100D49086000208860C860082008619E
:1024B000380A0A4908704F70200A8870CC70280AC0
:1024C00008714D71300A8871CE716B460A46024917
:1024D000034801F0EBF8F8BD883000202C01002003
:1024E000880D00200346042B15D007DC7BB1012B9F
:1024F0000ED0022B0DD0032B12D10BE0202B0BD0D2
:10250000212B0AD0222B09D0232B09D107E008E088
:1025100007E006E005E004E003E002E001E000E09F
:1025200000BF00BF002070470020704710B5002298
:10253000044905480AF059FC044903480AF04FFCD5
:10254000002010BD2826002084150020281E002011
:1025500070B504460D46214603480AF040FC024887
:102560000AF01CFC002070BD841500202DE9F0410C
:1025700004460D4600260A48D0F89072D7F8140297
:1025800010B10120BDE8F0812A46214604480AF036
:102590002CFC03480AF0A4FC06463046F2E7000093
:1025A000841500201B48406800F0006080B31A4882
:1025B000406B00681949884205D94FF000601749FF
:1025C0004C3908601CE01448406B00681149B83170
:1025D000884205D94FF000601049503908600FE07B
:1025E0000D48406B00680B495831884204D94FF0C0
:1025F00000600849C86003E04FF00060054988604A
:1026000005480068006840F40070034909680860E4
:102610007047000000600240BC0E00205864024079
:1026200010B5024802F022F810BD0000C4140020CA
:1026300010B5FE48C06C0068FD49884276D9FC4858
:1026400054380068F949C96C0968FA4A914201D1C5
:10265000202169E0F549C96C0968F54A483A914278
:1026600001D1202160E0F149C96C0968F14A60326A
:10267000914201D1202157E0EC49C96C0968EC4A2C
:102680001832914201D120214EE0E849C96C096815
:10269000E84A1832914201D1C91445E0E349C96CB6
:1026A0000968E34A303A914201D1C9143CE0DF495C
:1026B000C96C0968DF4A7832914201D1C91433E00C
:1026C000DA49C96C0968DA4A3032914201D1C91439
:1026D0002AE0D649C96C0968D64A3032914202D103
:1026E0004FF4001120E0D149C96C0968D04A183A6A
:1026F000914202D14FF4001116E0CC49C96C09682F
:10270000CC4A9032914202D14FF400110CE0C749FB
:10271000C96C0968C64A4832914203D14FF400118E
:1027200002E003E04FF00061084070E1BF48C06C78
:102730000068C049A831884276D9BD485838006839
:10274000BA49C96C0968BB4A914201D1202169E0AC
:10275000B649C96C0968B64A483A914201D120216C
:1027600060E0B249C96C0968B24A6032914201D155
:10277000202157E0AD49C96C0968AD4A1832914231
:1027800001D120214EE0A949C96C0968A94A183233
:10279000914201D1C91445E0A449C96C0968A44A11
:1027A000303A914201D1C9143CE0A049C96C096892
:1027B000A04A7832914201D1C91433E09B49C96CD7
:1027C00009689B4A3032914201D1C9142AE09749E5
:1027D000C96C0968974A3032914202D14FF4001116
:1027E00020E09249C96C0968914A183A914202D195
:1027F0004FF4001116E08D49C96C09688D4A90327A
:10280000914202D14FF400110CE08849C96C09686B
:10281000874A4832914203D14FF4001102E003E0AD
:102820004FF000610840F2E08048C06C00688149C8
:102830004831884276D97F48103840687B49C96C56
:1028400009687C4A914201D1202169E07749C96C2D
:102850000968774A483A914201D1202160E07349E2
:10286000C96C0968734A6032914201D1202157E056
:102870006E49C96C09686E4A1832914201D1202113
:102880004EE06A49C96C09686A4A1832914201D11E
:10289000C91445E06549C96C0968654A303A9142F6
:1028A00001D1C9143CE06149C96C0968614A7832B8
:1028B000914201D1C91433E05C49C96C09685C4A92
:1028C0003032914201D1C9142AE05849C96C0968D3
:1028D000584A3032914202D14FF4001120E053495E
:1028E000C96C0968524A183A914202D14FF400115A
:1028F00016E04E49C96C09684E4A9032914202D1A5
:102900004FF400110CE04949C96C0968484A483243
:10291000914203D14FF4001102E003E04FF0006157
:10292000084074E04348103800684049C96C0968A1
:10293000404A914201D1202168E03C49C96C0968B4
:102940003B4A483A914201D120215FE03749C96CA6
:102950000968384A6032914201D1202156E033495A
:10296000C96C0968324A1832914201D120214DE0E8
:102970002E49C96C09682F4A1832914201D1C914F5
:1029800044E02A49C96C0968294A303A914201D188
:10299000C9143BE02549C96C0968264A783291423E
:1029A00001D1C91432E02149C96C0968204A30328A
:1029B000914201D1C91429E01C49C96C09681D4A1A
:1029C0003032914202D14FF400111FE01749C96C17
:1029D0000968174A183A914202D14FF4001115E0E4
:1029E0001249C96C0968134A9032914202D14FF4DE
:1029F00000110BE00D49C96C09680D4A483291423B
:102A000002D14FF4001101E04FF0006108400028AE
:102A10006FD00648C06C0068054988427BD90348DE
:102A2000C06C00680349884208D105E0F40F00201B
:102A30005864024010600240202068E0FE48C06CEC
:102A40000068FE49884201D1202060E0FA48C06C4D
:102A50000068FB49884201D1202058E0F648C06C4C
:102A60000068F6496031884201D120204FE0F248E9
:102A7000C06C0068F2494839884201D1C01446E070
:102A8000ED48C06C0068ED491831884201D1C0148E
:102A90003DE0E948C06C0068E9491831884201D13D
:102AA000C01434E0E448C06C0068E44978318842DE
:102AB00001D1C0142BE0E048C06C0068E049303917
:102AC000884202D14FF4001021E0DB48C06C00685E
:102AD000DA493031884202D14FF4001017E0D6486D
:102AE000C06C0068D6493031884204D14FF40010E0
:102AF0000DE0DFE10FE0D048C06C0068CF499031B5
:102B0000884202D14FF4001001E04FF00060CB4941
:102B1000091F08606AE1C848C06C0068C8494831AC
:102B2000884274D9C448C06C0068C549603988427D
:102B300001D1202066E0C048C06C0068BF498842CF
:102B400001D120205EE0BC48C06C0068BC498842CE
:102B500001D1202056E0B848C06C0068B749603108
:102B6000884201D120204DE0B348C06C0068B449D0
:102B70004839884201D1C01444E0AF48C06C0068B5
:102B8000AE491831884201D1C0143BE0AA48C06C5C
:102B90000068AB491831884201D1C01432E0A64820
:102BA000C06C0068A5497831884201D1C01429E081
:102BB000A148C06C0068A2493039884202D14FF464
:102BC00000101FE09C48C06C00689C49303188426E
:102BD00002D14FF4001015E09748C06C0068984986
:102BE0003031884202D14FF400100BE09248C06CA3
:102BF000006892499031884202D14FF4001001E000
:102C00004FF000608D4908390860EFE0FFE78A481F
:102C1000C06C00688A491839884274D98648C06CEB
:102C2000006887496039884201D1202066E08248E7
:102C3000C06C00688149884201D120205EE07E4856
:102C4000C06C00687E49884201D1202056E07A4855
:102C5000C06C006879496031884201D120204DE084
:102C60007548C06C006876494839884201D1C01463
:102C700044E07148C06C006870491831884201D145
:102C8000C0143BE06C48C06C00686D491831884244
:102C900001D1C01432E06848C06C006867497831DF
:102CA000884201D1C01429E06348C06C00686449BF
:102CB0003039884202D14FF400101FE05E48C06CEA
:102CC00000685E493031884202D14FF4001015E0AF
:102CD0005948C06C00685A493031884202D14FF4DB
:102CE00000100BE05448C06C006854499031884291
:102CF00002D14FF4001001E04FF0006050497039EC
:102D0000C86073E0FFE74C48C06C00684C4960390C
:102D1000884201D1202066E04748C06C00684749DE
:102D2000884201D120205EE04348C06C00684449DD
:102D3000884201D1202056E03F48C06C00683F49DE
:102D40006031884201D120204DE03B48C06C0068D2
:102D50003B494839884201D1C01444E03648C06C30
:102D6000006836491831884201D1C0143BE032482E
:102D7000C06C006832491831884201D1C01432E079
:102D80002D48C06C00682D497831884201D1C014AB
:102D900029E02948C06C006829493039884202D1AD
:102DA0004FF400101FE02448C06C00682349303104
:102DB000884202D14FF4001015E01F48C06C006833
:102DC0001F493031884202D14FF400100BE01A48FD
:102DD000C06C006819499031884202D14FF400104C
:102DE00001E04FF00060164970398860154800789E
:102DF00000F0020078B11348007820F00200114979
:102E000008700846007840F004000870012211465E
:102E10000D4801F0DBFF0D48007800F00200E0B142
:102E20000A48007820F00200084908700846007837
:102E300040F0040008700BE0F40F00201064024022
:102E4000706002406D030020000402406E03002009
:102E500001221021184801F0B9FF1848007800F04D
:102E6000020078B11548007820F00200134908707C
:102E70000846007840F004000870012210210E4836
:102E800001F0A4FF0EF0EAFF0D48007800F0040006
:102E900080B10B48007820F004000949087008460A
:102EA000007840F0080008700648006840F0010013
:102EB0000449086010BD0000000002406F030020BC
:102EC0006D030020103C014010B5024801F0CEFB1C
:102ED00010BD00002415002010B5024801F0C6FB0B
:102EE00010BD00000414002001680A4BCAB2103A59
:102EF000A3FB02321209084B9B5CC365032A04D969
:102F00006FF30901091D816502E06FF30901816515
:102F1000806D7047ABAAAAAA848B010801460020E5
:102F20008A6A8B69002B0FD0B3F5005F1DD08AB37E
:102F3000012A30D0022A2ED0032A04D1C96A11F006
:102F4000807F00D0012070471AB1012A07D0022AE1
:102F5000F9D1C96A11F0807FF5D001207047C96AA4
:102F6000B1F1C07FFAD1012070475AB1012A0BD0CC
:102F7000022A07D0032AF7D1C96AB1F1C07FF3D181
:102F80000120704701207047C96A11F0807FFAD094
:102F900001207047FFE701207047704710B50120FE
:102FA00001F0FAFD10BD10B5082001F0F5FD10BDCF
:102FB00010B5102001F0F0FD10BD10B5202001F07B
:102FC000EBFD10BD704700000022002905D001294B
:102FD0001AD002291BD04FF440720E490B6823F41B
:102FE00040730B600B681A430A600A6822F0F8020B
:102FF0000A600A68022343EAC000104308600868B8
:1030000040F48030086070474FF48072E5E74FF479
:103010000072E2E7103C02401448016811F4007F9E
:103020000FD0016821F400710160016841F4006172
:103030000160016821F400610160016841F40071E0
:103040000160016811F4806F0FD0016821F4806184
:103050000160016841F480510160016821F48051F0
:103060000160016841F4806101607047003C0240EA
:1030700008490A6822F440720A600A6842F00402B1
:103080000A600A684FF4803343EA00201043086066
:1030900070470000103C0240064A136823F4407356
:1030A000136013681360136843F001031360017029
:1030B00070470000103C02400A49D1F800C02CF4CF
:1030C000407CC1F800C0D1F800C04CF4407CC1F88D
:1030D00000C0D1F800C04CF0010CC1F800C0026083
:1030E00043607047103C0240074A136823F4407362
:1030F0001360136843F480731360136843F0010393
:103100001360018070470000103C0240074A1368BA
:1031100023F440731360136843F40073136013685F
:1031200043F001031360016070470000103C02404F
:103130001A49086810F0100F194805D0C26942F00A
:103140001002C26110220A600A6812F0200F05D036
:10315000C26942F00802C26120220A600A6812F0C5
:10316000400F05D0C26942F00402C26140220A60E9
:103170000A6812F0800F05D0C26942F00202C261F3
:1031800080220A600A6812F0020F05D0C26942F07C
:103190002002C26102200860704700000C3C02401F
:1031A000104C002070B5044614490020C86101F09D
:1031B00015FE0646124D286810F4803F0ED0B4F17B
:1031C000FF3F07D024B101F009FE801BA04201D9C6
:1031D000032070BD286810F4803FF0D1286810F0FB
:1031E000010F01D001202860286810F0F20F03D0F1
:1031F000FFF79EFF012070BD002070BD104C002025
:103200000C3C024070B50A480468001D0568001DAA
:103210000668344454B108220649204604F05CFD97
:10322000042204491031284604F056FD70BD000008
:10323000107AFF1F7600002038B44FF0000CCDF854
:1032400000C090F83C20012A1BD0012280F83C20CD
:103250000A680724092A17D90368DD680A3A02EBCD
:10326000420204FA02F225EA0202DA600A788B6866
:103270000A3A02EB420293400268D4682343D360C7
:1032800014E038BC0220704703681D6902EB42025B
:1032900004FA02F225EA02021A610A788B6802EB4C
:1032A0004202934002681469234313614A681F2451
:1032B000072A15D203685D6B521E02EB820204FAE4
:1032C00002F225EA02025A630A8893B20A79521E70
:1032D00002EB820293400268546B234353632CE059
:1032E0000D2A15D203681D6BD21F02EB820204FA6D
:1032F00002F225EA02021A630A8893B20A79D21FFF
:1033000002EB820293400268146B2343136314E0C0
:103310000368DD6A0D3A02EB820204FA02F225EA42
:103320000202DA620A8893B20A790D3A02EB82024B
:1033300093400268D46A2343D362184A184B046846
:103340009C4206D10C68122C03D1546844F48004CA
:10335000546004689C421CD10B68102B01D0112BC7
:1033600017D1536843F4000353600968102910D142
:103370000C490D4A0968B1FBF2F101EB81014900EA
:103380000091009929B10099491E009100990029E6
:10339000F9D180F83CC038BC0020704700230140C0
:1033A00000200140A000002040420F000068C06CD7
:1033B000704770B504460025002C03D0206C002611
:1033C00010B107E0012070BD204600F01DF86664D2
:1033D00084F83C60206C10F0100F04D0012584F8B4
:1033E0003C60284670BD206C20F4885040F00200FC
:1033F00020642046FEF782FF6664206C20F0020005
:1034000040F001002064EAE710B586B004461421BC
:1034100001A8FDF7FAF92349206888420FD100BFBF
:10342000002000902048006840F480701E49086029
:103430000846006800F48070009000BF2FE01B4930
:10344000206888422BD100BF0020009016480068F9
:1034500040F48060144908600846006800F4806009
:10346000009000BF00BF00BF002000900E4814383D
:10347000006840F020000C491439086008460068D4
:1034800000F02000009000BF00BF0815019003204D
:1034900002900020039001A9054801F089FB06B0C5
:1034A00010BD0000002001404438024000220140CD
:1034B000001402402DE9F04104460D462068816861
:1034C0004FF0000711F4806F0CD0806810F4807FFB
:1034D00008D0206C40F02000206484F83C7001206B
:1034E000BDE8F08101F07AFC06462068006810F023
:1034F000020F16D1B5F1FF3F0ED025B101F06EFCE1
:10350000801BA84208D9206C40F00400206484F895
:103510003C700320BDE8F0812068006810F0020FC5
:10352000E8D021686FF012000860206C40F4007051
:1035300020642068816811F0405F15D1217E99B91F
:10354000C16A11F4700F03D0806810F4806F0BD142
:10355000206C20F480702064206C10F4805F03D114
:10356000206C40F0010020640020BDE8F0810000E4
:1035700081B00022009290F83C10012908D001216E
:1035800080F83C1001688B6813F0010F03D016E03F
:10359000022001B070478B6843F001038B6035490E
:1035A000354B0968B1FBF3F101EB41010091009942
:1035B00029B10099491E009100990029F9D10168AB
:1035C0008B6813F0010F51D0036C23F0010323F437
:1035D000C06343F4807303644B6813F4806F05D0B9
:1035E000036C23F4005343F480530364036C13F41B
:1035F000805F04D0436C23F00603436400E0426420
:1036000080F83C201D4A6FF022030B60516811F0D6
:103610001F0F1B4907D00068884227D1816811F02D
:10362000405F1FD022E00068884212D0154A9042C5
:1036300004D1D1F8042312F01F0F0AD0A0F1804268
:10364000B2F5913212D1D1F8041301F01F01102903
:103650000CD2816811F0405F08D1816841F080414F
:10366000816003E0816841F080418160002001B009
:1036700070470000A000002040420F0000230140DE
:10368000002001400021014090F82020012A07D0AD
:10369000022A05D0416A41F480214162012070472D
:1036A00000684269114341610020704770B490F88E
:1036B0002040D0F800C0DCF808C0012C08D0022C53
:1036C00006D0416A41F48021416270BC01207047FC
:1036D0000CF080640CF000652C4302D11CF0805F7C
:1036E0005FD0CCF3016CBCF1020F06D9416A41F402
:1036F0000001416270BC01207047012404FA0CF4FF
:103700001C608B684FF4C0749BB1CD6804EB0C1641
:103710002B434D6843EAC5030568AB514FF4C273B0
:10372000066803EB0C130D69F550097D012909D0DA
:103730000DE00D88CB6804EB0C1643EA4553056891
:10374000AB51EBE70168CD5845F48075CD50117948
:10375000D379557941EA036193791B0443EA052340
:1037600019434FF4C675036805EB0C1559511178D0
:10377000D37841EA0361937852781B0443EA02222A
:1037800011434FF4C473026803EB0C13D15001686A
:1037900004EB0C100A5842F001020A5070BC0020E1
:1037A0007047416A41F40011416270BC01207047CA
:1037B00090F82020012A07D0022A05D0416A41F45E
:1037C00080214162012070474248D0F8002242F037
:1037D0000102C0F80022D0F8002222F47C52C0F886
:1037E0000022D0F800224B6A42EA0322C0F80022ED
:1037F0000A7D012302F01F0203FA02F2D0F81C3204
:103800009343C0F81C32CB69D3B9D0F80C32934340
:10381000C0F80C32B1F80CC04B686CF31F43D1F800
:1038200014C000EBCC0CCCF84032B1F808C00B68E7
:103830006CF31F43D1F814C000EBCC0CCCF844322D
:10384000CB69012B1AD1D0F80C321343C0F80C32DB
:10385000B1F800C04B686CF31F43D1F814C000EB03
:10386000CC0CCCF84032B1F808C0CB686CF31F43E5
:10387000D1F814C000EBCC0CCCF844328B697BB18E
:10388000D0F804321343C0F804320B6973B1D0F896
:1038900014321343C0F81432096A01290CD010E025
:1038A000D0F804329343C0F80432EEE7D0F8143273
:1038B0009343C0F81432EFE7D0F81C121143C0F85C
:1038C0001C12D0F8001221F00101C0F800120020F3
:1038D0007047000000640040704710B490F820C0AA
:1038E000BCF1010F09D0BCF1020F06D0416A41F4CE
:1038F0008021416210BC0120704739B1D0F800C06E
:10390000DCF810C01CF0030F7DD006E0D0F800C03A
:10391000DCF80CC01CF0030F7BD04FF4D87C04689B
:103920000CEB011C54F80C4004F004049460002CCF
:103930007DD0046854F80C40E4085460046854F8DE
:103940000CC0CCF3400CC2F80CC04FF4DA7C046815
:103950000CEB011C54F80C4004F00F0414610468D3
:1039600054F80C40C4F307249461046854F80CC064
:103970004FEA1C4CC2F814C04FF4DC72D0F800C0FF
:1039800002EB01125CF802C083F800C0D0F800C05E
:103990005CF802C04FEA1C2C83F801C0D0F800C0CC
:1039A0005CF802C04FEA1C4C83F802C0D0F800C09B
:1039B0005CF80220120EDA704FF4DE72D0F800C00C
:1039C00002EB01125CF802C083F804C0D0F800C01A
:1039D0005CF802C04FEA1C2C83F805C0D0F800C088
:1039E0005CF802C04FEA1C4C83F806C0D0F800C057
:1039F0005CF80220120EDA71F9B10068016941F039
:103A00002001016102E00BE003E010E010BC0020A7
:103A10007047416A41F40011416210BC01207047B7
:103A2000416A41F40011416210BC012070470468F2
:103A300054F80C40640D146080E70068C16841F0E0
:103A40002001C160DEE72DE9F05F0546002428680B
:103A50004669D0F804908768D0F80CA0D0F810B070
:103A6000D0F8188016F0010F54D017F0010F17D0BE
:103A70000121816017F0020F03D0284600F0B0FD4D
:103A80000EE017F0040F02D04FF4006408E017F0C6
:103A9000080F02D04FF4805402E0284600F09FFD4A
:103AA00017F4807F19D029684FF48070886017F46C
:103AB000007F03D0284600F095FD0EE017F4806FDC
:103AC00002D044F4005408E017F4006F02D044F42C
:103AD000804402E0284600F084FD17F4803F19D0AE
:103AE00029684FF48030886017F4003F03D02846DF
:103AF00000F07AFD0EE017F4802F02D044F4004469
:103B000008E017F4002F02D044F4803402E0284685
:103B100000F069FD16F0080F07D01AF0100F04D05E
:103B200044F4007429681020C86016F0040F4FF0A8
:103B3000080707D01AF0080F04D02868C760284685
:103B400000F000FA16F0020F07D02868C06810F0E5
:103B5000030F02D0284600F0F7F916F0400F07D007
:103B60001BF0100F04D044F4806429681020086111
:103B700016F0200F07D01BF0080F04D0286807614B
:103B8000284600F0F7FC16F0100F07D028680069EF
:103B900010F0030F02D0284600F0EDFC16F4003FB1
:103BA00008D019F0100F05D0296810204860284669
:103BB00000F0E2FC16F4803F07D019F0080F04D0A3
:103BC00028684760284600F010FD16F4004F4AD0E0
:103BD00019F0040F44D016F4807F04D018F0010FC0
:103BE00001D044F0010416F4007F04D018F0020F55
:103BF00001D044F0020416F4806F04D018F0040FD2
:103C000001D044F0040416F4006F29D018F0700FAE
:103C100026D008F07000402815D006DC102809D006
:103C200020280AD0302816D10AE050280ED060286B
:103C300011D10EE044F008040DE044F010040AE055
:103C400044F0200407E044F0400404E044F0800421
:103C500001E044F480742868816921F07001816179
:103C6000296804204860002C05D0686A20436862F7
:103C70002846FFF731FEBDE8F09F70B50446002CE2
:103C800003D094F8200010B104E0012070BD20465C
:103C900000F0A8F82068016821F00201016001F03D
:103CA0009DF80546206840684FF0050610F0020FA9
:103CB00011D001F093F8401B0A2807D9606A40F43C
:103CC0000030606284F82060012070BD2068406888
:103CD00010F0020FEDD12068016841F00101016090
:103CE00001F07CF805462068406810F0010F11D102
:103CF00001F074F8401B0A2807D9606A40F40030CC
:103D0000606284F82060012070BD2068406810F077
:103D1000010FEDD0207E01283FD02068016821F0FE
:103D200080010160607E01283DD02068016821F09B
:103D300040010160A07E01283BD02068016821F08D
:103D400020010160E07E012839D02068016841F03F
:103D500010010160207F012837D02068016821F020
:103D600008010160607F012835D02068016821F0DA
:103D700004010160E168A068626908432169114398
:103D800008436168491E08432168C86100206062D9
:103D9000012084F82000002070BD2068016841F0F7
:103DA00080010160BEE72068016841F040010160C8
:103DB000C0E72068016841F020010160C2E7206887
:103DC000016821F010010160C4E72068016841F03A
:103DD00008010160C6E72068016841F00401016044
:103DE000C8E7000010B586B00446142101A8FCF70E
:103DF0000CFD4E492068884241D14D480068401C66
:103E00004B4908600846006801280FD100BF002018
:103E100000904848006840F0007046490860084635
:103E2000006800F00070009000BF00BF00BF0020DD
:103E3000009040481038006840F008003D491039B3
:103E400008600846006800F00800009000BF00BF4E
:103E50000320019002200290002003900320049090
:103E60000920059001A9344800F0A2FE0022062195
:103E7000142001F0B5FA142001F0A4FA54E02F49FF
:103E80002068884250D100BF002000902948006877
:103E900040F08060274908600846006800F08060B4
:103EA000009000BF00BF22480068401C2049086005
:103EB0000846006801280FD100BF002000901D486F
:103EC000006840F000701B4908600846006800F078
:103ED0000070009000BF00BF00BF00200090154898
:103EE0001038006840F00200124910390860084696
:103EF000006800F00200009000BF00BF6020019049
:103F000002200290002003900320049009200590D5
:103F100001A90B4800F04CFE00220621402001F0D0
:103F20005FFA402001F04EFA06B010BD0064004078
:103F30003400002040380240000C0240006800407D
:103F4000000402407047000030B52DED068B89B0AB
:103F500004466B4602AA00212046FFF7BEFCFC483F
:103F600084427DD10298A0F20120082846D2DFE8E1
:103F700000F004468ACCFEFDFCFBF648007800EB1E
:103F80008000F54931F8100000B2F249097801EBE0
:103F90008101F14A02EB410108819DF801009DF881
:103FA000001040EA0120EB49097801EB810122F879
:103FB00011009DF803009DF8021040EA012000B2B4
:103FC000E449097801EB810102EB410148809DF849
:103FD00005009DF8041040EA012000B2DD4909788F
:103FE00001EB810102EB410188809DF80600D9496F
:103FF000097801EB810102EB41018871A3E2D74806
:10400000007800EB8000D44931F8100000B2D349A9
:10401000097801EB8101D04A02EB410108819DF84A
:1040200001009DF8001040EA0120CC49097801EB1D
:10403000810122F811009DF803009DF8021040EA6A
:10404000012000B2C549097801EB810102EB410171
:1040500048809DF805009DF8041040EA012000E02A
:1040600072E200B2BD49097801EB810102EB410126
:1040700088809DF80600B949097801EB810102EBBF
:10408000410188715FE2B648007800EB8000B249D8
:1040900031F8100000B2B249097801EB8101AE4A53
:1040A00002EB410108819DF801009DF8001040EAF3
:1040B0000120AB49097801EB810122F811009DF83C
:1040C00003009DF8021040EA012000B2A4490978DB
:1040D00001EB810102EB410148809DF805009DF84C
:1040E000041040EA012000B29D49097801EB8101EA
:1040F00002EB410188809DF806009949097801EB9F
:10410000810102EB410188711DE29648007800EBC5
:104110008000914931F8100000B29249097801EB12
:1041200081018D4A02EB410108819DF801009DF853
:10413000001040EA01208B49097801EB810122F847
:1041400011009DF803009DF8021040EA012000B222
:104150008449097801EB810102EB410148809DF817
:1041600005009DF8041003E0ABE10FE156E013E019
:1041700040EA012000B27B49097801EB810102EBA2
:10418000410188809DF806007649097801EB81019C
:1041900002EB41018871D6E17348007800EB8000A2
:1041A0006D4931F8100000B26F49097801EB8101C7
:1041B000694A02EB410108819DF801009DF8001059
:1041C00040EA01206849097801EB810122F81100D9
:1041D0009DF803009DF8021040EA012000B26249F8
:1041E000097801EB810102EB410148809DF805004F
:1041F0009DF8041040EA012000B25B49097801EB08
:10420000810102EB410188809DF80600564909783A
:1042100001EB810102EB4101887194E15348007880
:1042200000EB80004C4931F8100000B24F4909788A
:1042300001EB8101484A02EB410108819DF8010030
:104240009DF8001040EA01204849097801EB8101FE
:1042500022F811009DF803009DF8021040EA0120A9
:1042600000B24249097801EB810102EB410148802B
:104270009DF805009DF8041040EA012000B23B497A
:10428000097801EB810102EB410188809DF806006D
:104290003649097801EB810102EB41018871104632
:1042A000418EB0F93A00081A3149884207DA31489C
:1042B000B0F84007401C00B22E49A1F8400726483C
:1042C000418EB0F93A00081A41F65831884207DDAC
:1042D0002848B0F84007401E00B22649A1F8400720
:1042E0001D48408E2349B1F840174FF4005212FB8D
:1042F00001012048B0F8E803081A00EE100AB8EEF1
:10430000C00A1C4880EDFF0A90EDFF0ADFED1A0A93
:1043100080EE201A11EE105A284611F0C7FF41EC2A
:104320001A0B9FED160B53EC102B11F0EDFA41EC2C
:10433000190B9FED140B53EC102B11F0C7F841EC47
:10434000180B10F02FFE0B49C1F8FC03FBE0000036
:10435000880D002042010020502F00204301002042
:1043600044010020450100204601002047010020B3
:10437000A8E4FFFFFC340020000080456F1283C0DA
:10438000CA21094000000000000033407048007856
:1043900000EB80006F4931F8100000B26C490978D9
:1043A00001EB81016B4A02EB410108819DF801009C
:1043B0009DF8001040EA01206549097801EB810170
:1043C00022F811009DF803009DF8021040EA012038
:1043D00000B25F49097801EB810102EB410148809D
:1043E0009DF805009DF8041040EA012000B25849EC
:1043F000097801EB810102EB410188809DF80600FC
:104400005349097801EB810102EB410188711046A3
:10441000818FB0F94400081A10F5805F08DA4E4821
:10442000B0F84207401C00B24B49A1F842070FE028
:104430004848818FB0F94400081AB0F5805F07DD65
:104440004548B0F84207401E00B24349A1F8420770
:104450004148D0F8740500883F49B1F842174FF43D
:10446000005212FB01013C48B0F81A06081A00EE8F
:10447000100AB8EEC00A394880ED2E0A90ED2E0AD7
:104480005FED430A80EE201A11EE105A284611F013
:104490000DFF41EC1A0B9FED320B53EC102B11F07A
:1044A00033FA41EC190B9FED300B53EC102B11F04C
:1044B0000DF841EC180B10F075FD2749C1F82C06DA
:1044C00041E02B48007800EB8000224931F81000D1
:1044D00000B22749097801EB81011E4A02EB410134
:1044E00008819DF801009DF8001040EA0120204954
:1044F000097801EB810122F811009DF803009DF875
:10450000021040EA012000B21949097801EB81014B
:1045100002EB410148809DF805009DF8041040EA37
:10452000012000B21249097801EB810102EB41013F
:1045300088809DF806000E49097801EB810102EBA5
:104540004101887100BF00BF09B0BDEC068B30BDD2
:1045500048010020502F0020FC340020703A002039
:104560001F85EB51B81E09400000000000004240CA
:104570004901002070477047704770B5044694F8B1
:104580002000012805D0606A40F40020606201200C
:1045900070BD022084F820002068016821F001012C
:1045A000016000F01BFC05462068406810F0010F18
:1045B00012D000F013FC401B0A2808D9606A40F4AE
:1045C00000306062052084F82000012070BD206862
:1045D000406810F0010FECD10020606270BD7047A0
:1045E00070477047704770477047704710B5044672
:1045F000002C02D0607910B106E0012010BD00202F
:104600002071204600F006F80220607101206071E0
:10461000002010BD08B50A4A016891420FD100BFC1
:10462000002100910749096841F48051054A116051
:104630001146096801F48051009100BF00BF08BD18
:10464000003002403038024090F83510022903D083
:104650008021416501207047052180F835100068F0
:10466000016821F001010160002070472DE9F84345
:1046700004464FF00008CDF8008076484FF41651FC
:104680000068B0FBF1F7A56D2E6894F85C00082176
:1046900001FA00F0304211D02068026812F0040FD5
:1046A0000CD0026822F00402026094F85C0001FA67
:1046B00000F0A860606D40F00100606594F85C0057
:1046C0004FF0010909FA00F0304209D02168496928
:1046D00011F0800F04D0A860606D40F002006065AA
:1046E00094F85C1004208840304209D021680968A1
:1046F00011F0020F04D0A860606D40F00400606506
:1047000094F85C1010208840304224D02168096859
:1047100011F0080F1FD0A8602068016811F4802FE5
:104720000DD0006810F4002F04D0A16C99B1204680
:10473000884710E0216C71B1204688470BE0016882
:1047400011F4807F03D1016821F008010160216C20
:1047500009B12046884794F85C10202088403042F8
:1047600051D02168096811F0100F4CD0A86094F85E
:10477000350005280DD02068016811F4802F32D053
:10478000006810F4002F29D0E16B59B32046884708
:1047900039E02068016821F0160101602068416954
:1047A00021F080014161206C08B9A06C20B1206823
:1047B000016821F00801016094F85C003F2101FAD2
:1047C00000F0A86084F8348084F83590216D0029C9
:1047D0003ED001B02046BDE8F0430847616C09B106
:1047E000204688470FE0016811F4807F07D10168F7
:1047F00021F01001016084F8348084F83590E16B79
:1048000009B120468847606D002821D0606D10F006
:10481000010F15D0052084F835002068016821F0CB
:10482000010101600098401C0090B84204D8206843
:10483000006810F0010FF5D184F8348084F83590C9
:10484000E16C002904D001B02046BDE8F0430847E0
:10485000BDE8F883A00000202DE9F041044600F0F7
:10486000BDFA0546DCB1002684F83460022084F8E5
:1048700035002068016821F00101016020680068AE
:1048800010F0010F13D000F0A9FA401B052809D938
:1048900020206065032084F83500BDE8F081012008
:1048A000BDE8F0812068006810F0010FEBD12168AD
:1048B0000868234A1040A3686268D4F810C01A43FD
:1048C000E36843EA0C031A4363691A43A3691A4372
:1048D000E3691A43236A1A431043626A042A03D124
:1048E000236BE26A1A43104308602068406920F095
:1048F0000701606A40EA0105012704280ED1A06A79
:104900000543E06A50B12046FEF708FB30B1402075
:10491000606584F835700120BDE8F081206845614C
:104920002046FEF7E1FA94F85C103F2202FA01F10A
:104930008160666584F835700020BDE8F081000074
:104940003F8010F070B5044600F048FA0546B4F117
:10495000FF3F02D004480078044400F03FFA401BB7
:10496000A042FAD370BD00007C0400202DE9F04184
:1049700004460F46DFF8988098F8180001280AD0FE
:10498000012088F818004CF25030FEF70BFC02466C
:10499000100003D035E00220BDE8F0814FF0FF3079
:1049A000386020681B4E012815D0A568E0682844AF
:1049B000A84224D9217C2846FEF706FB4CF2503051
:1049C000FEF7F0FB0246306820F0FA00306010007D
:1049D0000FD03D6013E0207C6168FEF749FB4CF28C
:1049E0005030FEF7DFFB0246306820F004003060F4
:1049F00005E06D1CA168E0680844A842DAD8FEF71B
:104A00000BFB002088F818001046BDE8F08100007C
:104A1000104C0020103C02400348016841F0004166
:104A20000160002070470000103C02402DE9F04179
:104A30000646884614461D461A4F387E012807D080
:104A4000012038764CF25030FEF7ACFB18B115E07F
:104A50000220BDE8F081AEB1012E18D0022E1BD08D
:104A600022462B464046FEF727FB4CF25030FEF71D
:104A700099FB0D490A6822F001020A60002139768B
:104A8000BDE8F081E1B24046FEF706FBEDE7A1B2DA
:104A90004046FEF729FBE8E721464046FEF736FB95
:104AA000E3E70000104C0020103C024000200849C1
:104AB0000A6812F0004F09D0074A064B1360074BF3
:104AC0001360096811F0004F00D00120704700000A
:104AD000103C024023016745043C0240AB89EFCD06
:104AE00010B50446102C14D109200AF01DFE2248EE
:104AF000007840F00100204908702048007840F01C
:104B000001001E4908701E480078A0B30DF0A6F9F8
:104B100031E0202C0ED108200AF006FE194800785A
:104B200040F00100174908701548007818B30DF0DF
:104B300095F920E0082C09D10A200AF0F5FD124869
:104B4000007840F001001049087014E0012C12D1E7
:104B50000FF004FD01280ED00C490D4800680EF03E
:104B600061FE0A48006830B120070A490860BFF3B7
:104B70004F8FBFF36F8F10BD6E0300206F030020B7
:104B8000710300206D030020700300201404002036
:104B90004803002004ED00E010B504490A68024211
:104BA00002D00860FFF79CFF10BD0000143C0140DC
:104BB0002DE9F84F0022DFF80082DFF80092DFF8DD
:104BC00000A24FF0030E0F27012303FA02F50B6832
:104BD0002B40AB427DD1D1F804C0BCF1020F02D012
:104BE000BCF1120F12D14FEAD20C00EB8C0CDCF8A6
:104BF00020605407E40E07FA04FB26EA0B06D1F8FE
:104C000010B00BFA04F43443CCF8204006684FEAA5
:104C1000420C0EFA0CF4A64391F804B00BF0030B0F
:104C20000BFA0CFB4BEA060606604E68012E05D017
:104C3000022E03D0112E01D0122E11D18668A64368
:104C4000D1F80CB00BFA0CFB4BEA060686604668FE
:104C500026EA05050E79C6F30016964035434560F1
:104C6000C56825EA04048D6805FA0CFC4CEA040CBE
:104C7000C0F80CC0D1F804C01CF0805F7DD0D8F81B
:104C800000C04CF4804CC8F800C0D8F800C00CF448
:104C9000804CCDF800C022F0030C0CF1804404F5E8
:104CA0009834D4F808C895072D0F07FA05F62CEAB2
:104CB0000606A0F1804CBCF5003C64D0A0F1804C0D
:104CC000BCF5013C62D0A0F1804CBCF5023C60D048
:104CD00000E052E0A0F1804CBCF5033C5CD0A0F1B8
:104CE000804CBCF5043C5AD0A0F1804CBCF5053C8E
:104CF00058D0A0F1804CBCF5063C56D0A0F1804CB9
:104D0000BCF5073C54D04FF0080C0CFA05FC4CEAFB
:104D1000060CC4F808C8D9F800C02CEA030C4C688B
:104D200014F4803F01D04CEA030CC9F800C0254CB4
:104D3000D4F800C02CEA030C4D6815F4003F01D0F4
:104D40004CEA030CC4F800C0DAF800C02CEA030CEB
:104D50004C6814F4801F01D04CEA030CCAF800C060
:104D6000194CD4F800C02CEA030C4D6815F4001F50
:104D700001D04CEA030CC4F800C0521C102AFFF406
:104D800023AFBDE8F88F4FF0000CBEE74FF0010CE9
:104D9000BBE74FF0020CB8E74FF0030CB5E74FF05C
:104DA000040CB2E74FF0050CAFE74FF0060CACE790
:104DB0004FF0070CA9E7000044380240003C0140D6
:104DC000083C0140043C01400C3C0140002A01D059
:104DD0008161704709048161704700000148806863
:104DE000704700007C04002070B50446002C04D0FD
:104DF00094F83D00002510B106E0012070BD84F854
:104E00003C50204600F06CF9242084F83D002068D6
:104E1000016821F00101016001F0A4F9544B6168BF
:104E2000994203D85349884203D304E05249884247
:104E300001D2012070BD5149B0FBF1F12268D2F8D6
:104E400004C02CF03F0C4CEA010CC2F804C06268AC
:104E50009A4201D84A1C07E04FF4967251434FF42E
:104E60007A72B1FBF2F14A1C2168D1F820C02CF013
:104E70003F0C42EA0C020A626168994210D849006C
:104E8000401EB0FBF1F2521CC2F30B02042A01D205
:104E9000042026E0B0FBF1F0401CC0F30B0020E042
:104EA000A268002A50D001EBC10303EB0113A0F16B
:104EB000010CBCFBF3F35B1C43F480431B051B0D8F
:104EC0004AD0002A4AD001EBC10202EB0111401E78
:104ED000B0FBF1F0401CC0F30B0040F4804040F404
:104EE00000402168CA6922F0FF0222F44F421043B9
:104EF000C861216AE06901432068026822F0C002AB
:104F000011430160E168206901432068826822F052
:104F1000FF0222F4034211438160A16960690143E9
:104F20002068C26822F0FF021143C1602068016856
:104F300041F0010101602564202084F83D002563D3
:104F400084F83E50002070BD01EB4103A0F1010C3C
:104F5000BCFBF3F35B1CB1E70120C2E701EB4101AD
:104F6000401EB0FBF1F0401CC0F30B00B7E700009F
:104F7000A086010080841E0000093D0040420F0011
:104F80002DE9F84F04468A46904699460A9FFFF756
:104F900025FF064694F83D00202802D00220BDE8F7
:104FA000F88F192301224C492046009602F042FD59
:104FB00010B10220BDE8F88F94F83C00012808D019
:104FC000012084F83C002068016811F0010F03D033
:104FD00006E00220BDE8F88F016841F001010160A0
:104FE0002068016821F400610160212084F83D00FF
:104FF000102084F83E0000252564C4F82480A4F81D
:105000002A90608D20853548E06233463A46514605
:10501000204602F011FC10B10120BDE8F88F206895
:10502000416980690090208D002846D0324639467B
:10503000204602F0C0FD50B1206C042804D1206845
:10504000016841F4007101600120BDE8F88F606AD9
:10505000216800780861606A00F1010CC4F824C07E
:10506000608D401E6085208D401E80B220852268A4
:10507000516911F0040F0CD058B19CF80000106178
:10508000606A401C6062608D401E6085208D401EFD
:10509000208532463946204602F09EFC50B1206CF5
:1050A000042804D12068016841F4007101600120E6
:1050B000BDE8F88F208D0028B8D12068016841F440
:1050C00000710160202084F83D0084F83E5084F88F
:1050D0003C500020BDE8F88F020010000000FFFFE8
:1050E00010B586B00446142101A8FBF78EFB734966
:1050F0002068884230D100BF0020009070480068CE
:1051000040F002006E4908600846006800F00200A6
:10511000009000BF00BF4FF4407001901220029039
:1051200001200390032004900420059001A9654804
:10513000FFF73EFD00BF002000906148103000687E
:1051400040F400105E49103108600846006800F421
:105150000010009000BFAFE05B492068884259D141
:1051600000BF002000905648006840F020005449DD
:1051700008600846006800F02000009000BF00BFF3
:10518000032001901220029001200390032004903C
:105190000420059001A94D48FFF70AFD00BF00203B
:1051A000009047481030006840F4800044491031B6
:1051B00008600846006800F48000009000BF00BF4F
:1051C0004348444908604FF06060486040214148CE
:1051D00081600021C1604FF4806101610021416163
:1051E0008161C1614FF40031016200214162FFF72A
:1051F00033FB08B1FDF7E6FE00BF36486063846309
:1052000000BF35480068406840F4006032490968D2
:10521000486051E03149206888424DD100BF0020EC
:1052200000902748006840F00400254908600846BF
:10523000006800F00400009000BF00BF00BF002025
:1052400000900846006840F00100086008460068C9
:1052500000F00100009000BF00BF4815019012202F
:10526000029001200390032004900420059001A9DE
:105270001B48FFF79DFC4FF48070019012200290B4
:1052800001200390032004900420059001A91548F3
:10529000FFF78EFC00BF0020009009481030006826
:1052A00040F400000649103108600846006800F428
:1052B0000000009000BF00BF06B010BD00540040C9
:1052C0003038024000040240005800400014024000
:1052D000B8600240640F0020BC0E0020005C00405B
:1052E0000008024000000240024881680278114430
:1052F000816070477C04002010B50B48016841F4C0
:1053000000710160016841F480610160016841F44D
:1053100080710160032000F097F80F2000F006F87C
:1053200000F026F8002010BD003C024070B5044695
:105330000D4D4FF47A712878B1FBF0F00B490968F4
:10534000B1FBF0F001F066FB08B1012070BD102C3C
:1053500007D200222146501E00F042F86C60002067
:1053600070BD012070BD00007C040020A000002062
:1053700008B500BF002000901148006840F480404C
:105380000F4908600846006800F48040009000BFA4
:1053900000BF00BF00200090081F006840F0805050
:1053A000091F08600846006800F08050009000BFA8
:1053B00000BF00220F21901E00F012F808BD00006F
:1053C0004438024000280ADB00F01F01012202FAE3
:1053D00001F14009800000F1E020C0F800117047A1
:1053E00010B4184B1B68C3F30223C3F1070CBCF1C4
:1053F000040F01D94FF0040C1C1D072C01D200230F
:1054000000E0DB1E012404FA0CFCACF1010C0CEAF8
:105410000101994004FA03F35B1E1A40114300286E
:1054200006DB00F1E020090180F8001410BC704791
:1054300000F00F0000F1E020090180F8141D10BCFD
:10544000704700000CED00E000F00700064A11680C
:105450004FF6FF03194041EA002040F0FD7040F094
:1054600080601060704700000CED00E0704700683D
:1054700041620020704730B40368586A00291BD08D
:10548000D3F828C000EB1C4C00200129A1F1010138
:105490004FF4827408D004EB80055D590CEB154C79
:1054A000401CC0B28842F6D304EB81014CEA0240B2
:1054B000585030BC0020704740EA02409862F8E73C
:1054C00010B50446D4F8040408F016F810BD70B501
:1054D00004460D46C5EBC50304F13C0101EB830115
:1054E000CA682946D4F8040407F056FF70BD70B5A9
:1054F00004460D46C5EBC50304F5FE7101EB8301BF
:10550000CA682946D4F8040407F0B1FF70BD10B58D
:105510000446D4F8040407F0F1FF10BD70B504464A
:1055200011F0800F01F00F00C0EBC00104EB81010E
:105530004FF001024FF0000502D03C314A7002E00A
:1055400001F5FE714D70087094F8BC03012808D075
:1055500084F8BC23206808F029FC84F8BC530020A0
:1055600070BD022070BD70B5044601F00F02606886
:10557000824201D9012070BD01F00F00C0EBC000D4
:1055800011F0800F04EB80004FF001034FF0000595
:1055900003D000F13C014B7002E000F5FE714D704C
:1055A0008D700A7094F8BC03012808D084F8BC33CD
:1055B000206808F0EDFD84F8BC53002070BD022087
:1055C00070BD01F00F01C1EBC10100EB8100D0F80B
:1055D0001402704770B5044611F0800F01F00F00FF
:1055E000C0EBC00104EB81014FF0010C4FF000054E
:1055F00003D03C3181F801C002E001F5FE714D702D
:1056000008708A60CB704A7802B1C880022B00D142
:105610000D7194F8BC03012808D084F8BCC320683D
:1056200008F0FEFA284684F8BC5370BD022070BD15
:1056300010B50C4604F00F0CCCEBCC0100EB810153
:1056400001F5FE71CA604B6100238B614B7081F8DC
:1056500000C00369012B00D10A6114F00F0F05D0BF
:10566000027C006808F0EFFD002010BD027C00689D
:1056700008F0C8FCF8E770B504460D46616805F00F
:105680000F00884201D9012070BD15F0800F4FF046
:1056900000064FF0010206D0C0EBC00104EB81010F
:1056A0003C314A7006E0C5EBC50104EB810101F510
:1056B000FE714E708A70087094F8BC03012808D0FF
:1056C00084F8BC23206808F08FFD15F00F0F02D07E
:1056D00007E0022070BD217C04F57172206808F09B
:1056E00027FD84F8BC63002070BD10B50C4604F0A3
:1056F0000F0CCCEBCC0100EB81013C31CA604B615B
:1057000000238B6101234B7081F800C00369012BDA
:1057100000D10A6114F00F0F05D0027C006808F078
:1057200092FD002010BD027C006808F06BFCF8E7D9
:105730002DE9F05F04462568284608F0D5FE0028CC
:105740007ED1206808F0FCFE002879D0206808F09F
:10575000F7FE10F0020F04D02068416901F0020149
:105760004161206808F0ECFE10F4002F4FF00109B1
:105770004FF0080A4FF0100B4CD00026206808F0BC
:10578000BEFE80465FEA080044D018F0010F3BD00F
:10579000F1B2206808F0CCFE074617F0010F07D0E1
:1057A00005EB4610C0F8089B3146204603F05EFB2F
:1057B00017F0080F07D03146204603F023FB05EB16
:1057C0004610C0F808AB17F0100F03D005EB4610D9
:1057D000C0F808BB17F0200F0DD02069012805D1B3
:1057E00004F571720121206808F0A2FC05EB461156
:1057F0002020C1F8080B17F4005F05D005EB461117
:105800004FF40050C1F8080B761C4FEA5808B8F165
:10581000000FBAD1206808F093FE10F4802F64D0F6
:10582000206808F065FE07460026002F5DD017F0BF
:10583000010F56D0F1B2206808F068FE804600E003
:105840008BE118F0010F27D006F00F0009FA00F0E5
:10585000D5F834188143C5F8341805EB4610C0F864
:1058600008992069012807D1C6EBC60004EB800027
:10587000426C816C11448164F1B22046FFF727FE2F
:105880002069012808D13EB9206D28B904F571724C
:105890000121206808F04CFC18F0080F03D005EB3C
:1058A0004610C0F808A918F0100F03D005EB4610F9
:1058B000C0F808B918F0400F04D005EB461140209D
:1058C000C1F8080918F0020F04D005EB46110220B8
:1058D000C1F8080918F0800F03D03146204603F0C4
:1058E0003DFB761C7F08002FA1D1206808F028FE20
:1058F00010F0004F11D0D5F8040820F00101C5F8D0
:10590000041894F8F40301285BD0204600F046FA0E
:105910002068416901F000414161206808F010FEF3
:1059200010F4006F0CD0D5F8080810F0010F02D069
:10593000204600F07FFA2068416901F4006141616E
:10594000206808F0FDFD10F4805F60D0D5F80408F1
:1059500020F00101C5F804181021206808F0A0FD0E
:1059600000216068002817D94FF67F3205EB4110FF
:10597000C0F80829D0F8003923F40013C0F8003922
:10598000C0F8082BD0F8003B23F40013C0F8003B0C
:10599000491C60688842E9D8D5F81C0840F001111C
:1059A000C5F81C18206BA0B1D5F8840840F00B0195
:1059B000C5F88418D5F8440840F00B01C5F8441820
:1059C00014E0002084F8F40300212046FFF74EFD88
:1059D0009EE7D5F8140842F22B010143C5F81418CC
:1059E000D5F8100840F00B01C5F81018D5F80008DC
:1059F00020F4FE61C5F80018217C04F5717220685E
:105A000008F096FB2068416901F4805141612068EB
:105A100008F096FD10F4005F16D0206808F04EF9EB
:105A2000206808F051FDE06000F096FB2368014615
:105A3000227B184608F0CAFD204600F097F920683E
:105A4000416901F400514161206808F079FD10F0CE
:105A5000100F36D02068816921F0100181612F6A12
:105A600007F00F00C0EBC00004EB800000F5FE76ED
:105A7000C7F34340022802D0062812D01CE047F6A4
:105A8000F070074218D0C7F30A1217462846F1688B
:105A900008F05AFDF0683844F060B0693844B061ED
:105AA0000AE0082204F57171284608F04DFDB0693E
:105AB000C7F30A110844B0612068816941F0100100
:105AC0008161206808F03CFD10F0080F07D02046E7
:105AD00000F06BF92068416901F00801416120681C
